{
  "_format": "hh-sol-artifact-1",
  "contractName": "ERC20",
  "sourceName": "contracts/ERC20.sol",
  "abi": [
    {
      "inputs": [
        {
          "internalType": "string",
          "name": "name",
          "type": "string"
        },
        {
          "internalType": "string",
          "name": "symbol",
          "type": "string"
        },
        {
          "internalType": "uint8",
          "name": "decimals",
          "type": "uint8"
        }
      ],
      "stateMutability": "nonpayable",
      "type": "constructor"
    },
    {
      "anonymous": false,
      "inputs": [
        {
          "indexed": true,
          "internalType": "address",
          "name": "from",
          "type": "address"
        },
        {
          "indexed": true,
          "internalType": "address",
          "name": "to",
          "type": "address"
        },
        {
          "indexed": false,
          "internalType": "uint256",
          "name": "value",
          "type": "uint256"
        }
      ],
      "name": "Transfer",
      "type": "event"
    },
    {
      "inputs": [],
      "name": "_decimals",
      "outputs": [
        {
          "internalType": "uint8",
          "name": "",
          "type": "uint8"
        }
      ],
      "stateMutability": "view",
      "type": "function"
    },
    {
      "inputs": [],
      "name": "_name",
      "outputs": [
        {
          "internalType": "string",
          "name": "",
          "type": "string"
        }
      ],
      "stateMutability": "view",
      "type": "function"
    },
    {
      "inputs": [],
      "name": "_symbol",
      "outputs": [
        {
          "internalType": "string",
          "name": "",
          "type": "string"
        }
      ],
      "stateMutability": "view",
      "type": "function"
    },
    {
      "inputs": [
        {
          "internalType": "address",
          "name": "account",
          "type": "address"
        }
      ],
      "name": "balanceOf",
      "outputs": [
        {
          "internalType": "uint256",
          "name": "",
          "type": "uint256"
        }
      ],
      "stateMutability": "view",
      "type": "function"
    },
    {
      "inputs": [
        {
          "internalType": "address",
          "name": "_user",
          "type": "address"
        }
      ],
      "name": "blackList",
      "outputs": [],
      "stateMutability": "nonpayable",
      "type": "function"
    },
    {
      "inputs": [
        {
          "internalType": "address",
          "name": "account",
          "type": "address"
        },
        {
          "internalType": "uint256",
          "name": "amount",
          "type": "uint256"
        }
      ],
      "name": "burn",
      "outputs": [],
      "stateMutability": "nonpayable",
      "type": "function"
    },
    {
      "inputs": [],
      "name": "greet",
      "outputs": [
        {
          "internalType": "string",
          "name": "",
          "type": "string"
        }
      ],
      "stateMutability": "view",
      "type": "function"
    },
    {
      "inputs": [
        {
          "internalType": "address",
          "name": "account",
          "type": "address"
        },
        {
          "internalType": "uint256",
          "name": "amount",
          "type": "uint256"
        }
      ],
      "name": "mint",
      "outputs": [],
      "stateMutability": "nonpayable",
      "type": "function"
    },
    {
      "inputs": [
        {
          "internalType": "address",
          "name": "_user",
          "type": "address"
        }
      ],
      "name": "removeFromBlacklist",
      "outputs": [],
      "stateMutability": "nonpayable",
      "type": "function"
    },
    {
      "inputs": [
        {
          "internalType": "string",
          "name": "_greeting",
          "type": "string"
        }
      ],
      "name": "setGreeting",
      "outputs": [],
      "stateMutability": "nonpayable",
      "type": "function"
    },
    {
      "inputs": [],
      "name": "totalSupply",
      "outputs": [
        {
          "internalType": "uint256",
          "name": "",
          "type": "uint256"
        }
      ],
      "stateMutability": "view",
      "type": "function"
    },
    {
      "inputs": [
        {
          "internalType": "address",
          "name": "recipient",
          "type": "address"
        },
        {
          "internalType": "uint256",
          "name": "amount",
          "type": "uint256"
        }
      ],
      "name": "transfer",
      "outputs": [],
      "stateMutability": "nonpayable",
      "type": "function"
    }
  ],
  "bytecode": "0x60806040526002805460ff19166012179055600680546001600160a01b03199081167388c12420d8c3930b40130f206602605e51eb7a34179091556007805490911673d9c31e60ea57159d1732ddd4744e34c291cdc5661790553480156200006657600080fd5b5060405162000ff438038062000ff483398101604081905262000089916200023d565b82516200009e906000906020860190620000ec565b508151620000b4906001906020850190620000ec565b506002805460ff191660ff9290921691909117905550506007546001600160a01b031660009081526003602052604081205562000311565b828054620000fa90620002be565b90600052602060002090601f0160209004810192826200011e576000855562000169565b82601f106200013957805160ff191683800117855562000169565b8280016001018555821562000169579182015b82811115620001695782518255916020019190600101906200014c565b50620001779291506200017b565b5090565b5b808211156200017757600081556001016200017c565b600082601f830112620001a3578081fd5b81516001600160401b0380821115620001c057620001c0620002fb565b6040516020601f8401601f1916820181018381118382101715620001e857620001e8620002fb565b6040528382528584018101871015620001ff578485fd5b8492505b8383101562000222578583018101518284018201529182019162000203565b838311156200023357848185840101525b5095945050505050565b60008060006060848603121562000252578283fd5b83516001600160401b038082111562000269578485fd5b620002778783880162000192565b945060208601519150808211156200028d578384fd5b506200029c8682870162000192565b925050604084015160ff81168114620002b3578182fd5b809150509250925092565b600281046001821680620002d357607f821691505b60208210811415620002f557634e487b7160e01b600052602260045260246000fd5b50919050565b634e487b7160e01b600052604160045260246000fd5b610cd380620003216000396000f3fe608060405234801561001057600080fd5b50600436106100b45760003560e01c80639dc29fac116100715780639dc29fac1461013a578063a41368621461014d578063a9059cbb14610160578063b09f126614610173578063cfae321714610188578063d28d885214610190576100b4565b806318160ddd146100b957806332424aa3146100d757806340c10f19146100ec5780634838d16514610101578063537df3b61461011457806370a0823114610127575b600080fd5b6100c1610198565b6040516100ce9190610bb1565b60405180910390f35b6100df61019e565b6040516100ce9190610bba565b6100ff6100fa366004610888565b6101a7565b005b6100ff61010f366004610867565b61028e565b6100ff610122366004610867565b610315565b6100c1610135366004610867565b610398565b6100ff610148366004610888565b6103b7565b6100ff61015b3660046108b1565b6104c3565b6100ff61016e366004610888565b6104da565b61017b61068a565b6040516100ce9190610952565b61017b610718565b61017b6107aa565b60055490565b60025460ff1681565b6006546001600160a01b031633146101da5760405162461bcd60e51b81526004016101d190610a78565b60405180910390fd5b6001600160a01b0382166102005760405162461bcd60e51b81526004016101d190610b7a565b80600560008282546102129190610bc8565b90915550506001600160a01b0382166000908152600360205260408120805483929061023f908490610bc8565b90915550506040516001600160a01b038316906000907fddf252ad1be2c89b69c2b068fc378daa952ba7f163c4a11628f55a4df523b3ef90610282908590610bb1565b60405180910390a35050565b6006546001600160a01b031633146102b85760405162461bcd60e51b81526004016101d190610a78565b6001600160a01b03811660009081526004602052604090205460ff16156102f15760405162461bcd60e51b81526004016101d190610a9e565b6001600160a01b03166000908152600460205260409020805460ff19166001179055565b6006546001600160a01b0316331461033f5760405162461bcd60e51b81526004016101d190610a78565b6001600160a01b03811660009081526004602052604090205460ff166103775760405162461bcd60e51b81526004016101d190610ad5565b6001600160a01b03166000908152600460205260409020805460ff19169055565b6001600160a01b0381166000908152600360205260409020545b919050565b6006546001600160a01b031633146103e15760405162461bcd60e51b81526004016101d190610a78565b6001600160a01b0382166104075760405162461bcd60e51b81526004016101d190610b43565b6001600160a01b03821660009081526003602052604090205481111561043f5760405162461bcd60e51b81526004016101d190610b0c565b6001600160a01b03821660009081526003602052604081208054839290610467908490610c1f565b9250508190555080600560008282546104809190610c1f565b90915550506040516000906001600160a01b038416907fddf252ad1be2c89b69c2b068fc378daa952ba7f163c4a11628f55a4df523b3ef90610282908590610bb1565b80516104d69060009060208401906107b7565b5050565b336000908152600360205260409020548111156105095760405162461bcd60e51b81526004016101d190610a13565b6001600160a01b03821661052f5760405162461bcd60e51b81526004016101d1906109dc565b6001600160a01b03821660009081526004602052604090205460ff16156105685760405162461bcd60e51b81526004016101d1906109a5565b3360009081526004602052604090205460ff16156105985760405162461bcd60e51b81526004016101d190610a4a565b60006105a5606483610be0565b6105b0906005610c00565b336000908152600360205260408120805492935084929091906105d4908490610c1f565b909155506105e490508183610c1f565b6001600160a01b0384166000908152600360205260408120805490919061060c908490610bc8565b90915550506007546001600160a01b03166000908152600360205260408120805483929061063b908490610bc8565b90915550506040516001600160a01b0384169033907fddf252ad1be2c89b69c2b068fc378daa952ba7f163c4a11628f55a4df523b3ef9061067d908690610bb1565b60405180910390a3505050565b6001805461069790610c36565b80601f01602080910402602001604051908101604052809291908181526020018280546106c390610c36565b80156107105780601f106106e557610100808354040283529160200191610710565b820191906000526020600020905b8154815290600101906020018083116106f357829003601f168201915b505050505081565b60606000805461072790610c36565b80601f016020809104026020016040519081016040528092919081815260200182805461075390610c36565b80156107a05780601f10610775576101008083540402835291602001916107a0565b820191906000526020600020905b81548152906001019060200180831161078357829003601f168201915b5050505050905090565b6000805461069790610c36565b8280546107c390610c36565b90600052602060002090601f0160209004810192826107e5576000855561082b565b82601f106107fe57805160ff191683800117855561082b565b8280016001018555821561082b579182015b8281111561082b578251825591602001919060010190610810565b5061083792915061083b565b5090565b5b80821115610837576000815560010161083c565b80356001600160a01b03811681146103b257600080fd5b600060208284031215610878578081fd5b61088182610850565b9392505050565b6000806040838503121561089a578081fd5b6108a383610850565b946020939093013593505050565b600060208083850312156108c3578182fd5b823567ffffffffffffffff808211156108da578384fd5b818501915085601f8301126108ed578384fd5b8135818111156108ff576108ff610c87565b604051601f8201601f191681018501838111828210171561092257610922610c87565b6040528181528382018501881015610938578586fd5b818585018683013790810190930193909352509392505050565b6000602080835283518082850152825b8181101561097e57858101830151858201604001528201610962565b8181111561098f5783604083870101525b50601f01601f1916929092016040019392505050565b60208082526017908201527f726563697069656e74206973206261636b6c6973746564000000000000000000604082015260600190565b6020808252601c908201527f7472616e7366657220746f20746865207a65726f206164647265737300000000604082015260600190565b6020808252601f908201527f7472616e7366657220616d6f756e7420657863656564732062616c616e636500604082015260600190565b6020808252601490820152731cd95b99195c881a5cc8189858dadb1a5cdd195960621b604082015260600190565b6020808252600c908201526b24b9903737ba1037bbb732b960a11b604082015260600190565b60208082526018908201527f7573657220616c726561647920626c61636b6c69737465640000000000000000604082015260600190565b60208082526018908201527f7573657220616c72656164792077686974656c69737465640000000000000000604082015260600190565b6020808252601b908201527f6275726e20616d6f756e7420657863656564732062616c616e63650000000000604082015260600190565b6020808252601a908201527f6275726e2066726f6d20746865207a65726f2061646472657373000000000000604082015260600190565b60208082526018908201527f6d696e7420746f20746865207a65726f20616464726573730000000000000000604082015260600190565b90815260200190565b60ff91909116815260200190565b60008219821115610bdb57610bdb610c71565b500190565b600082610bfb57634e487b7160e01b81526012600452602481fd5b500490565b6000816000190483118215151615610c1a57610c1a610c71565b500290565b600082821015610c3157610c31610c71565b500390565b600281046001821680610c4a57607f821691505b60208210811415610c6b57634e487b7160e01b600052602260045260246000fd5b50919050565b634e487b7160e01b600052601160045260246000fd5b634e487b7160e01b600052604160045260246000fdfea2646970667358221220131438089c88dcd43099854d47e46d2b8fa077eea26e664e2638354575aacdff64736f6c63430008000033",
  "linkReferences": {},
  "deployedLinkReferences": {}
}